:1000000000020400000000000403000004030000DC
:1000100004030000040300000403000004030000C4
:1000200004030000040300000403000004030000B4
:1000300004030000D40200000403000004030000D5
:100040000403000004030000040300000403000094
:100050000403000004030000040300000403000084
:100060000403000004030000040300000403000074
:100070000403000004030000040300000403000064
:100080000403000004030000040300000403000054
:100090000403000004030000040300000403000044
:1000A0000403000004030000040300000403000034
:1000B0000403000004030000040300000403000024
:1000C0000403000004030000040300000403000014
:1000D0000403000004030000040300000403000004
:1000E00004030000040300000403000004030000F4
:1000F00004030000040300000403000004030000E4
:1001000004030000040300000403000004030000D3
:1001100004030000040300000403000004030000C3
:1001200004030000040300000403000004030000B3
:080130000403000004030000B9
:1002080004030000040300000403000004030000CA
:1002180004030000040300000403000004030000BA
:10022800040300000403000004030000D4020000DB
:10023800040300000403000004030000040300009A
:10024800040300000403000004030000040300008A
:10025800040300000403000004030000040300007A
:10026800040300000403000004030000040300006A
:10027800040300000403000004030000040300005A
:10028800040300000403000004030000040300004A
:10029800040300000403000004030000040300003A
:1002A800040300000403000004030000040300002A
:1002B800040300000403000004030000040300001A
:1002C800040300000403000004030000040300000A
:1002D80004030000040300000403000004030000FA
:1002E80004030000040300000403000004030000EA
:1002F80004030000040300000403000004030000DA
:1003080004030000040300000403000004030000C9
:1003180004030000040300000403000004030000B9
:1003280004030000040300000403000004030000A9
:10040000EFCB21000E7F22000E01880000000000CB
:10041000000020000000E000020032000001200087
:100420002002880014000700790007000000E000A7
:1004300003003A00600F2200010020000200370094
:100440000000200001002000810F70000100320038
:1004500014000700000020000000E000020032004D
:100460000000020000000000A21F020000000000C7
:100470000040DA000000FE004440A90060042000B3
:100480000000E0000300320000002000A00188000E
:100490004440A800000006008A1F78008B1F7800E7
:1004A0000000060091018800800478000000EB0045
:1004B0001A003700E284440032A0B4009905BA0063
:1004C000E284440032A0B4009906BA00E2844400F9
:1004D00032A0B4000006EB00476FDE00FD07B2005B
:1004E000636CE10003003A00EBFF07000000EB0043
:1004F0000A003700606CE10004003A00005DEB0088
:100500008B05E900FDFF3E00040037006168E10053
:10051000010032000086EB000B00070019C7BA008B
:100520001905BA000E04E00003003A000A00E000DA
:10053000E0FF3A0000000600FE07B2009E018800BE
:100540008A047800F5FF3700395DBA008B05E900B1
:100550000C003200295DBA008B05E900080032006A
:100560000C00E00003003A00E284440032A0B40032
:10057000F5FF370019DDBA008B05E900FAFF3A00F4
:100580008904E800E184440032A0B40000000600C1
:10059000C81F040000000000EE1F0400000000005F
:1005A000AC0C0400000000003600F800809FBE0084
:1005B000829FBE00849FBE00869FBE003400F8006C
:1005C00000002000A00188000000FA008460A9005B
:1005D000630307000000E00003003200A6200200D1
:1005E00000000000000000000080FA003400F90064
:1005F0004F03BE004F02BE004F01BE004F00BE00C1
:100600003600F900004006000040DA000000FE005D
:10061000000005000900370030427800B141780041
:10062000834F520004003200100020000600310009
:100630000080EB00000006000201E9000200E0007B
:10064000F5FF3A000000EB00000006008001780092
:1006500002003700B15978000201E9000200E00011
:10066000FCFF3A000000060080017800020037001D
:10067000815978000201E9000200E000FCFF3A0025
:100680000000060011110000222200003333000098
:10069000444400005555000066660000777700006E
:1006A0008888000099990000AAAA0000BBBB00003E
:1006B000CCCC0000DDDD0000EEEE0000CECD000071
:1006C000ACAB0000494400004C45000000A5000010
:1006D000A5A50000A5A50000A5A50000A5A50000F2
:1006E000A5A50000A5A50000A5A50000A5A50000E2
:1006F000A5A50000A500000054610000736B000078
:100700003100000054610000736B000032000000F3
:100710001000FA002007980031079800420798005F
:10072000530798006407980075079800600220003E
:100730004D0E0700000F78001E0078000000E0005A
:100740000E0032004E00900000004000460E0700F0
:10075000800078001E007800410898001E00780094
:10076000400890000000E00004003A001E007800FD
:10077000680E07000000EB00000F78001E007800F4
:100780000000E000120032004E0090008000EB00FC
:100790000001EB00821F78009E0378007E0390002A
:1007A000EE0290005E0290000001BE00BE009000CC
:1007B0002E0090000B0007008F87E9001E007800D4
:1007C0006B0007001000200010079800020037009F
:1007D0000080EB00100798001E0090000080FA00D7
:1007E000000006001400FA00200798003107980066
:1007F000420798005307980064079800750798000F
:10080000060F9800170F98004E009000000040005F
:10081000800078001E0890004008900001017800D8
:10082000510A200090FF07001E089000C0089000A9
:10083000110798001E089000C00890004E0190001B
:10084000F0FF2700000041000000400080804000D1
:100850001E089000710898000000EB00000F78005F
:100860000D0037003E0090001E00400090407800D0
:100870001E0890001E0040007A00400001487800E9
:100880003E0090001E004000104078000004E00090
:10089000050032001E0FE8001E007800E30F500034
:1008A000F0FF360001003700000000001E08900035
:1008B0008040EB00515898007E009000E30F5000FC
:1008C0000200360030002000700798001E089000DB
:1008D000FE009000310898001E0890000080E8009B
:1008E0008C0C07001E0890006C004000890C07006B
:1008F0001E0890009E089000410098007E00900025
:10090000E40010001E089000610098001E0890008E
:100910009E089000110898001E0990006000B80021
:1009200000119800111198001E0890008040EB0003
:10093000416098006E019000AE0090001E00900093
:10094000EF0C0700800078001E0890000108780076
:100950000E0890000000E000030032000E08900036
:100960009E089000010878000080FA000000060050
:100970000200FA00000F7800570D07004040800089
:100980000000E80040408800004080000000E000D7
:1009900007003A009E007800014088004040800037
:1009A000E10F50000D003A00F60307000B0037007E
:1009B000704080000000E00008003A000040800025
:1009C000B00890001E00780030089000808F500022
:1009D00002003E009E00780001408800B040800088
:1009E0000000E800B04088001E007800B0089000C9
:1009F00060408000808F5000030036001E007800A9
:100A000030089000604088001E81E8001E007800D9
:100A1000300890006A00B9008000780020C32100EF
:100A20000080400082007800410C0700370D07006D
:100A3000704080000000E0000900320000408000AB
:100A4000B00890001E00780030089000808F5000A1
:100A500003003100A620020000000000000000009A
:100A60000080FA00000006000400FA001007980059
:100A7000190D07001E0090000000E00002003A007F
:100A800000408000010037001E009000000F780039
:100A90001E80E800760C07001E00780020089000F9
:100AA0000000E000030032009E0078006C804000EF
:100AB0006F0C0700B04080000000E800B0408800E4
:100AC000004080009E007800808F500008003A00AF
:100AD0001E80E8008000780080C72100140C070009
:100AE000304080000000E8003040880006003700F9
:100AF000404080000000E900404088001E0078006F
:100B0000E1030700E9030700000D070070408000C3
:100B10000000E00007003200004080009E007800E6
:100B2000808F500003003A00A62002000000000061
:100B3000000000000080FA00000006000C00FA002F
:100B400040079800510798000000EB00000F780064
:100B50008701070051408000110798004E00900067
:100B6000900078005E009000008040002007980010
:100B70004E009000900078001E009000808F500082
:100B80000C0036004E009000900078002E0090007F
:100B9000808F500012003600AE0090001E009000C2
:100BA000808F50000E00360010002000000F7800EB
:100BB0000B0037004E009000900078002E0090004F
:100BC000808F500004003E00AE0090001E00900098
:100BD000808F50000200360010002000000F7800C7
:100BE0004E009000AE009000010878001E007800D2
:100BF0000000E00005003200AE0090001E009000F2
:100C0000008050008000EB00B00507005E01070087
:100C1000300798003E0090000000E00003003A001A
:100C2000A620020000000000000000000080FA0082
:100C3000000006000400FA00100798000000EB0016
:100C4000000F78001E0090000000E0000600320057
:100C5000470107008000EB001E0090009B05070085
:100C600049010700000F78001E0078000000E00036
:100C700003003A00A620020000000000000000006F
:100C80000080FA00000006000C00FA0040079800FF
:100C9000510798000000EB00000F78005E00900004
:100CA000E30F50000200360030002000500798008B
:100CB000890C07004E0090000000E00002003A009E
:100CC00000408000010037004E009000100798009F
:100CD0001E009000B008900021079800AE00900020
:100CE0005E009000808F500048003200DE009000CF
:100CF0002E009000808F50000C00360000408000D5
:100D00009E009000808F50000E0032000040800056
:100D1000B00890005E009000808F500009003E00F7
:100D200010002000000F780006003700004080000F
:100D30009E009000808F500002003A0010002000BA
:100D4000000F78001E009000B00890003107980056
:100D50001E009000DE009000310898001E009000F8
:100D6000600090000000E000040035005E0090008C
:100D7000E40010001E009000610098001E0090002A
:100D8000500190003E0090006A00B9008000780099
:100D900020C3210000804000800F510015003A0060
:100DA0001E0090000080E800B10B07001E009000BC
:100DB000B008900060408000808F50000300360033
:100DC0001E00900030089000604088001E009000D7
:100DD0000081E8001E009000300890006A00B90011
:100DE0008000780020C3210000804000820078004D
:100DF0004F0B07001E0078000000E00003003200E7
:100E0000A620020000000000000000003F0C0700C8
:100E10000080FA00000006000400FA0010079800A5
:100E20002D0C07001E0090000000E00002003A00B8
:100E300000408000010037001E009000000F780085
:100E40001E80E8008A0B07001E0078002008900032
:100E50000000E000030032009E0078006C8040003B
:100E6000830B07001E80E8008000780020C8210066
:100E70002F0B0700250C0700704080000000E000E9
:100E800003003200140C0700080307001F0C0700C2
:100E9000004080009E007800808F50000E003A00D5
:100EA000704080000000E00004003200A620020034
:100EB00000000000000000000700370011E480007F
:100EC00040408000808F500002003A000028EF0070
:100ED00001003700910107000080FA0000000600C1
:100EE0000600FA00200798000000EB00000F7800D1
:100EF000AE009000110798001E009000D0009000F6
:100F000020C82100808F50000B003A001E00900086
:100F1000A0089000E0C62100808F5000060032003B
:100F20001E009000200890000000E00002003A003F
:100F300010002000000F78001E0078000080FA00EA
:100F4000000006000400FA00100798009E009000C0
:100F5000010F78001E0078000000E000260032003B
:100F6000004080009E007800808F500022003200F8
:100F7000D90B07001E007800D9FF07000000E00031
:100F80001C0032001E80E800390B07001E007800AC
:100F9000B008900060408000808F50000300360051
:100FA0001E00780030089000604088001E81E80034
:100FB0001E007800300890006A00B90080007800B8
:100FC00020C321000080400082007800D80A07007A
:100FD0001E007800B00890000040800030089000AB
:100FE000808F500003003900A6200200000000009E
:100FF00000000000C50B07000080FA00000006009A
:101000000800FA00300798000000EB00000F78009D
:10101000BE009000110798000000EB002007980028
:101020001E009000AEFF07000000E0002600320026
:10103000E04080000000E0001E003A001E0090002A
:10104000B00890000040800030089000808F500071
:101050000200390010002000000F78001E009000F0
:101060000080E800020B07001E009000B00890000E
:1010700060408000808F5000030036001E0090000A
:1010800030089000604088001E0090000081E80059
:101090001E009000300890006A00B90080007800BF
:1010A00020C321000080400082007800A00A0700D1
:1010B000050037001E0090006C00400080007800A2
:1010C000E0C621009A0A07001E0078000080FA009E
:1010D000000006000200FA00A58120000002EB00DB
:1010E0008001EB003207200021362800C0CA200012
:1010F00087FD0700000F78001E007800E10F500008
:101100000D003A0011028000F0F12F000080600015
:101110000050A00010028800000000000000000045
:101120000080EB00C0408800100020007040880064
:101130000A28EF003A0B07000080FA0000000600C2
:101140000000FA0011028000F0F12F000080600022
:101150000050A00010028800000000000000000005
:101160000E28EF00450B07000080FA000000060083
:101170000000FA00E04080000000E800E040880045
:101180000080FA00000006000600FA000000EB00F4
:10119000000F78000000EB00100798004E0B0700CE
:1011A000E04080000000E900E0408800E04080006E
:1011B0000000E00045003A00404080000000E000F0
:1011C0004200320021003700A0E380003000900090
:1011D000000F78009E0078006C804000A40A070091
:1011E0001E80E800A20A07001E007800B0089000E8
:1011F00060408000808F5000030036001E007800A1
:1012000030089000604088001E81E8001E007800D1
:10121000300890006A00B9008000780020C32100E7
:101220000080400082007800410A07001E0078001C
:10123000B00890000040800030089000808F50007F
:1012400002003900100020009040880070E3800008
:101250000000E000DCFF3A001E0078000000E00023
:101260000100320011020700814080002107980030
:101270002E0090000000E0000C0032003800070053
:101280000000E000020032001000200090408800C2
:101290002E0090000000E900200798002E0090002A
:1012A0000000E000F5FF3A001028EF0090408000B9
:1012B0000000E00005003200100020001007980038
:1012C000A620020000000000000000000F0B070035
:1012D0001E0090000080FA00000006000200FA00E4
:1012E000FD0A070051408000010F7800070B07003E
:1012F0001E0078000080FA00000006000400FA00DA
:101300000000EB00000F78005140800011079800AA
:101310001E0090000080FA00000006000000FA00A5
:10132000404080000080FA00000006000400FA003F
:10133000100798001E0090000000E00002003A0034
:1013400000408000010037001E009000000F780070
:101350009E0078007A8040000080FA0000000600BD
:101360000A00FA000000EB00000F7800E040800067
:101370000000E0005E003A00504080000000E800FD
:10138000100798009E009000514088001E009000B9
:101390000000E0000A003A00114080002107980098
:1013A0002040800010408800AE009000214088005E
:1013B000A04080000000E800A0408800BB010700BA
:1013C000C04080009E009000808F50003C0039009B
:1013D000010037000000000010408000100078007D
:1013E0000000E00003003A000080EB00C0408800ED
:1013F0003300370010408000300090003000900033
:10140000300798003E00900090009000410798003F
:101410009E0090004E009000808F5000030031002D
:10142000CE009000C1408800250037003E009000AB
:101430000080E8000E0A07003E009000200890009F
:101440000000E000030032003E0090006C0040000D
:10145000070A07003E009000B0089000604080003E
:10146000808F5000030036003E009000300890004E
:10147000604088003E0090000081E8003E0090003F
:10148000300890006A00B9008000780020C3210075
:101490000080400082007800A50907003E0090000F
:1014A000B00890000040800030089000808F50000D
:1014B000C8FF390010002000000F7800C6FF370079
:1014C00000408000300890006A00B9008000780079
:1014D00020C321000080400010007800E10F500080
:1014E0000600360010002000000F780003003700CF
:1014F000804080000000E80080408800904080002C
:101500000000E0000200320010002000000F780010
:101510001E0078000080FA00000006000600FA00B5
:10152000E04080000000E0000300320010002000D6
:1015300090408800390037001228EF0000408000FA
:1015400070089000100798001E0090007400500072
:101550001007980042012000713628001E009000FC
:101560002CFC07000000E000040032000040800076
:10157000FA00400000408000B60A07006140800089
:10158000010F7800010037001E0FE9001E007800EF
:101590006A00B9008000780020C32100008040006C
:1015A000100078000000E000F7FF32001E00780015
:1015B0006A00B9008000780020C32100008040004C
:1015C000200798002E0090001000900090009000DE
:1015D0002E009000110098002E00900090009000C6
:1015E0002E00900064004000808F500005003A00FB
:1015F0002E00900010009000900090002E009000AF
:10160000110098002E009000100090003000900013
:10161000004088009E007800614088000080FA0049
:10162000000006000400FA00000F7800110798007F
:10163000004080006C004000800078001E007800B0
:1016400059090700110020001E0090001F03070029
:101650000080FA00000006000600FA00000F780083
:101660001107980022079800004080009E0090001B
:1016700001F0A00061009800004080006C00400074
:10168000800078001E007800290907001100200062
:101690002E0090000D0307000080FA0000000600F5
:1016A0000600FA00200798002E00900030009000FD
:1016B00030009000100798001E0090006C00400061
:1016C0006B090700E04080000000E00016003A00CF
:1016D0001E0090000080E800650907001E009000D1
:1016E000B008900060408000808F500003003600FA
:1016F0001E00900030089000604088001E0090009E
:101700000081E8001E009000300890006A00B900D7
:101710008000780020C32100008040008200780013
:1017200003090700050037001E0090006C00400010
:1017300080007800E0C62100FD0807001E00900030
:10174000B00890000040800030089000808F50006A
:101750000500360010002000000F78001000200067
:1017600090408800020037000000EB00000F780076
:101770001E0078000080FA00000006000800FA0051
:1017800020079800310798003E0090008000780004
:1017900001F0A0002E009000010878002E009000BB
:1017A00030009000100798002E00900030090700CC
:1017B0001E0090000080E8002D0907001E00900028
:1017C000B008900060408000808F50000300360019
:1017D0001E00900030089000604088001E009000BD
:1017E0000081E8001E009000300890006A00B900F7
:1017F0008000780020C32100008040008200780033
:10180000CB0807001E009000B00890000040800048
:1018100030089000808F5000050036001000200036
:10182000000F780010002000904088000200370070
:101830000000EB00000F78001E0078000080FA0026
:10184000000006000200FA00000F7800A1408000AE
:101850001E00780001087800514080001E007800CA
:10186000110098000080FA00000006000800FA004D
:101870002007980031079800970907005140800021
:10188000110798003E00900010007800E10F400022
:1018900003003A000000EB00000F7800250037003D
:1018A0002E00900090007800A0408000808F5000B3
:1018B000080032002E009000900090001E00900062
:1018C000808F500003003E0010002000000F7800C1
:1018D000180037002E009000100090009E0090002D
:1018E000808050003E00900010007800808F5000F3
:1018F0000E0031003E009000900078002E00900015
:10190000100190001E0090000000510080804000F7
:101910003E009000010878002E009000C9FF0700EB
:101920000000EB00000F78000200370010002000DC
:10193000000F7800750907001E0078000080FA008B
:10194000000006000000FA0010002000904088000F
:101950000080FA00000006000200FA00000F780084
:101960002600070090E18000E10F500003003600E0
:10197000A62002000000000000000000AE090700E1
:10198000F7FF37000200FA000000EB00000F7800BC
:10199000070037001E0078006A00B9008000780058
:1019A00020C3210000804000410807001E0FE8000E
:1019B0001E007800E30F5000F6FF3600A0C521009E
:1019C0003B08070040C6210039080700E0C6210097
:1019D0003708070080C721003508070020C821000C
:1019E00033080700A0C521001040880040C6210030
:1019F000204088000080FA00000006000400FA0081
:101A00001C003700DAFD0700C0E3800000F0A700EB
:101A10000000EA00000FE9001E0078004F00DE0021
:101A2000000F7800D8FD07001E0078000000E000DD
:101A300010003A0028090700F0E380003000900011
:101A4000100798001E0090000080E800880807003A
:101A5000404080000000E9004040880030408000A5
:101A60000000E90030408800280907001E009000AF
:101A700005000700304080000000E000E1FF3A0070
:101A80000080FA00000006000200FA00000F780053
:101A90001E007800400890009E0907001E00780094
:101AA0009C0907000080FA00000006000200FA000E
:101AB00010408000100078000000E00003003A00B1
:101AC0000080EB00C0408800070037001040800015
:101AD0003000900030009000000F78001E00780069
:101AE00010009000C04088000080FA00000006004E
:101AF0000200FA0000408000E0009000010F780032
:101B00000040800001408000B1089000E480100097
:101B1000610098001E0078000080FA0000000600B6
:101B20000800FA002007980031079800EA0807002B
:101B3000004080009010900000109000E00F5000D6
:101B4000E08F58000C003A000040800011C0B30044
:101B5000416098003E0090000000E0000600320066
:101B6000110020003E009000D8010700A6200200CE
:101B70000000000000000000E4080700D60807008D
:101B8000004080000011900090119000028FBE0074
:101B90001E00BE00E00F5000E08F58000F00320022
:101BA0002E0090000000E00005003200024080009E
:101BB0006000B8000011980011119800070037006C
:101BC000024080000082EB008082EB003E00420079
:101BD000AE804A000011980011119800004080006A
:101BE0008040EB0041609800C80807001E00BE005E
:101BF0000080FA00000006000E00FA0010079800AE
:101C0000210798003207980043079800540798006E
:101C100065079800B0080700004080004060900011
:101C2000E24F500022003200044080000411900076
:101C3000941190001E009000AE0090000080EA0019
:101C40008180EA0082027800030178008001780038
:101C50000100780083826200000061008000EB00D8
:101C6000C000DD00000020000001BE006128B800B7
:101C70000001710081817100021298001312980016
:101C80000040800011C0B300416098006E009000D9
:101C90000000E00006003200110020006E009000FD
:101CA0008A010700A62002000000000000000000DA
:101CB00096080700880807005E0090000000E0001A
:101CC000050032000040800090109000001090004D
:101CD0005E0190000089BE000040800040609000DE
:101CE000E14F500003003A000000EB00000F7800C5
:101CF00018003700044080000411900094119000F7
:101D00003E009000CE0090000080EA008180EA0052
:101D100082027800030178008001780001007800D9
:101D200083826200000061008000EB00C000DD00E3
:101D3000000020000001BE006128B8000001710011
:101D40008181710002129800131298001000200087
:101D5000000F7800004080008040EB004160980058
:101D60006A0807001E0078000080FA0000000600E4
:101D70001000FA00300798004207980053079800B7
:101D8000610798007407980010002000000F780089
:101D9000BE009000110798004F0807007E009000D9
:101DA0000000E000050032001E009000901090003E
:101DB000001090007E0190000089BE001E0090007F
:101DC00040619000424798001E00900021C0B3007F
:101DD000416098006E009000E20F50001700320042
:101DE000E20F500005003E000000E0002E0032002F
:101DF000E10F5000060032002C003700E30F5000C6
:101E000017003200E40F50001B003200270037009B
:101E10001E00900000119000901190004E00900064
:101E2000DE00900000007100818071001E019000B2
:101E300000119800111198001C0037001E0090003E
:101E4000901090000010900061004000E080480079
:101E50001E01900000119800111198001300370026
:101E60001E0090004E019000DE01900002109800CC
:101E7000131098000D0037004E409000E24F5000C4
:101E8000060032001E0090004E019000DE0190001E
:101E90000210980013109800040037000000EB00B7
:101EA000000F780001003700000000004E40900055
:101EB000E14F50001E003A001E0090000080E80034
:101EC0006B0707001E009000B00890006040800083
:101ED000808F5000030036001E00900030089000F4
:101EE000604088001E0090000081E8001E00900005
:101EF000300890006A00B9008000780020C32100FB
:101F00000080400082007800090707001E00900052
:101F1000B00890000040800030089000808F500092
:101F200003003600A62002000000000000000000B0
:101F3000F60707001E0078000080FA000000060087
:101F40001400FA00400798005207980063079800B1
:101F500071079800040F9800150F980010002000DA
:101F6000000F7800CE009000110798000000EB00F1
:101F7000200798000E0890000000E00005003200E5
:101F80001E00900090109000001090000E0990002C
:101F90000089BE001E0090004061900062479800DA
:101FA0001E00900021C0B300416098007E009000A8
:101FB000E20F500017003200E20F500005003E0013
:101FC0000000E0002E003200E10F50000600320059
:101FD0002C003700E30F500017003200E40F5000D0
:101FE0001B003200270037001E00900000119000F7
:101FF000901190005E009000EE00900000007100D3
:10200000818071001E01900000119800111198004C
:102010001C0037001E0090009010900000109000EF
:1020200061004000E08048001E019000001198000F
:1020300011119800130037001E0090005E019000FF
:10204000EE01900002109800131098000D00370068
:102050006E409000E24F5000060032001E009000DB
:102060005E019000EE01900002109800131098009D
:10207000040037000000EB00000F7800010037007B
:10208000000000006E409000E14F50002D003A002B
:10209000E04080000000E00016003A001E009000C2
:1020A0000080E800F20607001E009000B0089000D3
:1020B00060408000808F5000030036001E009000BA
:1020C00030089000604088001E0090000081E80009
:1020D0001E009000300890006A00B900800078006F
:1020E00020C3210000804000820078009006070095
:1020F000050037001E0090006C0040008000780052
:10210000E0C621008A0607001E009000B00890007B
:102110000040800030089000808F50000900360099
:102120001E0890000000E000040032001E0890002D
:102130001100200001087800020037001000200084
:10214000904088001E0078000080FA000000060021
:102150000A00FA003007980041079800BE0090007E
:10216000010F78000000EB00100798001E007800B7
:10217000C0609000414798001E00780021C0B30065
:10218000416098001E0078009010900000109000B0
:1021900061004000E08048001E01780000119800B6
:1021A000111198004E409000E14F50002B003A0072
:1021B000E04080000000E00014003A001E80E800CB
:1021C000AB0607001E007800B00890006040800059
:1021D000808F5000030036001E0078003008900009
:1021E000604088001E81E8001E00780030089000E2
:1021F0006A00B9008000780020C321000080400000
:10220000820078004A060700050037009E0078002B
:102210006C80400080007800E0C621004406070082
:102220001E007800B0089000004080003008900048
:10223000808F5000090036004E0090000000E00042
:10224000040032004E0090001100200001087800C8
:102250000200370010002000904088000080FA0043
:10226000000006000600FA00200798002E009000EB
:102270000000E00002003A0000408000010037004A
:102280002E00900010079800130707001E00900012
:1022900040609000E24F500006003A001E0090009F
:1022A0008040EB004160980010002000000F780093
:1022B000020037000000EB00000F78001307070052
:1022C0001E0078000080FA00000006000800FA00F6
:1022D000200798003107980051408000010F7800D6
:1022E000004080000080E800610607002E0090009A
:1022F000E10F400009003A003E0090000000E000BD
:1023000006003200004080000080E8008000780075
:1023100020C8210006060700180037002E00900094
:102320001E00400010079800004080009E009000B2
:10233000110098001E0090009E0F50000500310013
:10234000004080008080E8002040800016060700E2
:102350000A003700004080008080E80010408000C4
:1023600011060700C04080009E009000808F500042
:10237000020031009E009000C14088000080FA00F9
:10238000000006000600FA001007980021079800D8
:102390009E009000010F7800CF0607001E00780015
:1023A000100178001E007800F00890001E007800F0
:1023B000001090000088B900000078008000410003
:1023C0001E007800110098001E0078008000EB00CD
:1023D000610898001E007800900078001E007800C8
:1023E000210098001E007800100178001E0078007F
:1023F000700890008000E9001E0078000010900036
:102400000088B90000007800800041001E007800BC
:10241000310098001E00780080C0EB002160980019
:102420001E00780080C0EB00316098002E00900004
:102430000000E0000D003A001E007800400090000F
:102440000000E0000F0032009E007800688040002D
:1024500093FC07000000E0000A003200A620020002
:102460000000000000000000060037009E00780019
:10247000688040008E0507009E0078007280400052
:102480008B050700A1060700100020000080FA005D
:10249000000006000C00FA00300798004107980081
:1024A000224F98004E0090000000E00003003A0028
:1024B0000000EB00000F780005003700BE00900020
:1024C0004E0090000088B90000007800000F7800EE
:1024D000410220001E804000E3060700100798001C
:1024E0001E0090000000E000090032001E00900075
:1024F0004002B000200798001E029000AE499000F4
:102500002E019000CE0090003E00900003000700D6
:102510001E0090000080FA00000006000A00FA0089
:10252000000F780011079800220798006347980071
:10253000440798001E0090000000E00004003A00EC
:10254000CE0090004E009000010878000300370094
:10255000AE0090004E009000010878004E00900000
:102560009E007800710898004E0090009E00900038
:1025700001109800110020004E00900081FF07001C
:102580000080FA00000006001200FA0050079800D0
:102590006107980072079800030F98000000EB0095
:1025A000000F7800DE00900011079800010037004E
:1025B00000000000480607001E009000E0089000A0
:1025C0001E00900070089000808F500003003900BA
:1025D0000E089000E20F50001B003A000E09900018
:1025E000EE0090001E009000C50107002007980033
:1025F0001E009000100890000000E000090032006A
:102600001E0090007200400025FC07000000E00062
:102610000A003200A62002000000000000000000B6
:10262000060037002E0090000000E000030032009A
:10263000A620020000000000000000003306070092
:10264000100020003D0037007E0090000000E000F8
:1026500003003A002D0607000000EB0037003700AA
:102660001E0078000000E00004003A006600470009
:1026700074FC070010002000000F780023060700FC
:10268000BBFA0700140607001E00900020609000AF
:10269000E14F400003003A001E0090008040EB0034
:1026A000216098001E00900030609000E14F4000D3
:1026B00003003A001E0090008040EB00316098005B
:1026C00012060700EE0047006600470067FC07009F
:1026D0000000E00015003A001E00900053020700C1
:1026E0000000E0000D003200FE0090001E0090008F
:1026F00068004000CBFB07001E009000F5010700BA
:10270000A1FA07000000E000A9FF3A00A62002009D
:102710000000000000000000A6FF37001E0090002F
:10272000EC01070098FA0700A2FF37001E00900096
:10273000E801070094FA07000000EB000080FA00AF
:10274000000006001000FA004007980051079800AA
:102750006207980073079800CE0090001107980058
:102760000000EB00200798001E009000E008900099
:102770001E00900070089000808F50000300390008
:102780007E009000E20F500022003A001E009000F0
:10279000B0609000614798007E019000DE009000DC
:1027A0001E009000560107006E409000E14F40006F
:1027B00010003A001E009000100890000000E00099
:1027C000110032001E00900072004000B4FB0700B0
:1027D0000000E0000C0032006E0090000000E000FD
:1027E000090032006E0090001100200001087800FE
:1027F000050037006E4090000040E80080407800FF
:102800001E0090003160980010002000000F78003A
:10281000020037000000EB00000F78001E00780077
:102820000080FA00000006000E00FA005007980031
:1028300061079800DE009000110798000000EB008F
:10284000200798001E009000E008900031079800D3
:102850001E009000F00890003E009000808F500015
:10286000220036001E009000B0609000014F9800DA
:102870003E0090008000E8001E0090006108980073
:102880000E489000E14F400010003A001E009000FA
:10289000100890000000E000110032001E009000BF
:1028A000720040007EFB07000000E0000C003200D8
:1028B0006E0090000000E000090032006E00900001
:1028C0001100200001087800050037000E48900034
:1028D0000040E800804078001E00900031609800C1
:1028E00010002000000F7800020037000000EB000D
:1028F000000F78001E0078000080FA00000006003B
:102900001400FA006007980071079800020F980001
:10291000130F98000000EB00000F7800EE0090000D
:102920001107980003003700000000000100370085
:1029300000000000680507001E009000E0089000FD
:10294000210798002E0090000000E0002C003200CB
:102950001E009000B000900031079800FE0090002B
:102960001E009000390107001E0890000000E000E2
:1029700011003A002E0090008000E9001E00900037
:10298000610898001E009000400090000000E000E8
:10299000180032001E0090006800400040FB070055
:1029A0000000E00013003200A6200200000000003A
:1029B000000000000F0037001E009000BE009000D5
:1029C000310098001E009000100890000000E00008
:1029D000080032001E0090007200400030FB07002B
:1029E0000000E00003003200A6200200000000000A
:1029F00000000000450507001000200041003700DE
:102A00000E0890000000E00003003A003F050700B8
:102A10000000EB003B0037001E0078000000E000E3
:102A200004003A006800470086FB07001000200001
:102A3000000F780035050700CDF9070026050700CF
:102A40001E00900020609000E14F400003003A001B
:102A50001E0090008040EB00216098001E00900056
:102A600030609000E14F400003003A001E009000EB
:102A70008040EB003160980024050700F00047001B
:102A80006800470079FB07000000E00015003A00ED
:102A90001E009000470107000000E0000D0032001A
:102AA0008E0890001E00900072004000DDFA0700C2
:102AB0001E00900007010700B3F907000000E000C6
:102AC00099FF3A00A620020000000000000000006C
:102AD00098FF37001E009000FE000700AAF90700CB
:102AE00094FF37001E009000FA000700A6F90700C7
:102AF0001E0090002F0107000000E0008CFF320054
:102B00000000EB000080FA00000006001000FA0050
:102B1000500798006107980072079800DE00900047
:102B2000110798000000EB00200798001E0090009D
:102B3000E0089000310798003E0090000000E0009F
:102B4000250032001E009000A0609000014F980008
:102B5000EE0090001E009000BC0007003E009000B8
:102B60008000E9001E009000610898000E48900067
:102B7000E14F400010003A001E009000400090001D
:102B80000000E000110032001E00900068004000CC
:102B9000C3FA07000000E0000C0032007E00900045
:102BA0000000E000090032007E00900011002000CB
:102BB00001087800050037000E4890000040E8004A
:102BC000804078001E0090002160980010002000D6
:102BD000000F7800020037000000EB00000F7800C3
:102BE0001E0078000080FA00000006000C00FA00C9
:102BF0004007980051079800CE00900011079800F8
:102C00000000EB00200798001E0090006008900074
:102C10000000E0000C0032001E009000B0009000A8
:102C200031079800DE0090001E009000870007002A
:102C30001E009000BE00900031009800100020009F
:102C4000000F7800020037000000EB00000F780052
:102C50001E0078000080FA00000006000400FA0060
:102C6000100798009C0407001E009000E0089000E8
:102C7000010F7800A50407001E0078000080FA000C
:102C8000000006000600FA0020079800AE00900041
:102C9000010F7800900407001E007800F0089000F3
:102CA0001E00780060089000008050001007980017
:102CB000960407001E0090000080FA000000060045
:102CC0000400FA00100798001E009000E008900031
:102CD000010F78001E0078000080FA000000060056
:102CE0000400FA00100798009E009000010F780081
:102CF0001E007800070507000080FA0000000600AB
:102D00000A00FA002007980031079800420798004F
:102D10000000EB00100798002E009000E0089000E3
:102D2000010F78002E009000001090000000E000DD
:102D3000400032004E0090000000E00019003A0010
:102D40002E009000801090002E0090002000900037
:102D500001017800BE0090003CF607002E009000B4
:102D6000A00090002E009000001090008080400095
:102D70002E009000210098002E009000A0009000EE
:102D80002E00900010009000808F50002900390024
:102D90002E009000900078002E00900021009800F6
:102DA000240037002E009000801090002E0090002C
:102DB0003000900001017800BE00900023F607006B
:102DC0002E009000B00090002E00900000109000A7
:102DD0000000EA00808040002E0090003100980042
:102DE0002E009000B00090002E009000100078009F
:102DF000808F5000080031002E009000900090005D
:102E00002E009000001090000000EA00808040003A
:102E10002E009000310098004E009000E20F50000C
:102E200004003A001E0078000000E00001003200BB
:102E30001E0FE9009E00E8002E0090006108980037
:102E40001E0090000080FA00000006000400FA0056
:102E5000000F7800110798001E0078000010900005
:102E60000000E000190032001E007800B000900061
:102E70001E00780000109000808040001E00780046
:102E8000310098001E007800B00090001E0078000D
:102E900010009000808F5000040039001E00780060
:102EA000900078001E007800310098001E00780025
:102EB000801090001E007800300090000101780022
:102EC000800078001E009000E0F507000080FA0006
:102ED000000006000400FA0010079800FE03070037
:102EE0001E009000B0609000014F78000B0037008A
:102EF0001E009000100890000000E0000B0032005F
:102F00001E00900072004000E5F907000000E0009C
:102F1000010032008BFA07001E4FE9001E407800C6
:102F20000004E000F2FF3C00010037000000000058
:102F30001E00900080C0EB0031609800F303070092
:102F4000E50307001E009000A06090001147980064
:102F50000D0037001E009000400090000000E000CF
:102F60000D0032001E00900068004000CCF9070000
:102F70000000E0000100320072FA07001E409000DD
:102F80000040E900104798001E4090000004E00057
:102F9000F0FF3C0001003700000000001E00900020
:102FA00080C0EB0021609800D80307000080FA0081
:102FB000000006000400FA0010079800C60307008E
:102FC0001E009000600890000000E00003003A003E
:102FD00010002000000F7800020037000000EB0016
:102FE000000F7800C90307001E0078000080FA0077
:102FF000000006000400FA00100798001E00900070
:10300000600890000000E00003003A00100020007B
:10301000000F7800020037000000EB00000F78007E
:103020001E0078000080FA00000006000400FA008C
:1030300010079800A80307001E009000E008900009
:103040001E00900070089000808F500003003A002E
:1030500010002000000F7800020037000000EB0095
:10306000000F7800A90307001E0078000080FA0016
:10307000000006000400FA00100798001E009000EF
:10308000E00890001E00900070089000808F5000B3
:1030900003003A0010002000000F78000200370003
:1030A0000000EB00000F78001E0078000080FA009E
:1030B000000006000A00FA00200798003107980077
:1030C00042079800AE00900011079800110280009E
:1030D000F0F12F00008060000050A0001002880076
:1030E00000000000000000001E009000CFFF07005D
:1030F0000000E000160032004E0090000000E000EA
:103100000C0032001E009000680040008000780033
:103110004E0090005501070011028000F0F12F00D1
:10312000008060001002880000000000C0FF2F0037
:103130003300370011028000F0F12F0000806000A2
:1031400010028800000000000000EB002C00370097
:1031500011028000F0F12F00008060001002880052
:103160000000000011028000F0F12F0000806000DC
:103170000050A000100288000000000000000000C5
:103180001E009000E00890001E0090007008900063
:10319000808F5000120031000001EB00BE00900053
:1031A0001E009000D6FE070010002000000F7800DF
:1031B0001E009000100890000000E0000A0032009D
:1031C0001E009000720040001D0207000000E00099
:1031D00005003200B0FF2F00000F7800020037001A
:1031E0000000EB00000F780011028000F0F12F00CA
:1031F0000080600010028800000000001E007800BF
:103200000080FA00000006000A00FA00200798007B
:103210003107980042079800AE009000110798000F
:1032200011028000F0F12F00008060000050A0002B
:103230001002880000000000000000001E00900046
:10324000600890000000E00016003A004E00900078
:103250000000E0000C0032001E00900072004000F0
:10326000800078004E0090000001070011028000ED
:10327000F0F12F00008060001002880000000000C4
:10328000C0FF2F004B00370011028000F0F12F002B
:103290000080600010028800000000000000EB00C9
:1032A0004400370011028000F0F12F000080600020
:1032B000100288000000000011028000F0F12F00D1
:1032C000008060000050A000100288000000000094
:1032D000000000001E009000600890000000E00068
:1032E0002C0032001E009000B00090001E009000E4
:1032F00000109000808040001E0090003100980077
:103300001E009000B00090001E0090001000900081
:10331000808F5000040039001E009000900078005B
:103320001E009000310098001E0090006008900080
:103330008000E9001E009000610898001E009000C7
:10334000801090001E009000300090000101780075
:10335000800078003E009000BCF4070010002000C0
:10336000000F78001E009000400090000000E00078
:103370000A0032001E00900068004000B001070003
:103380000000E00005003200B0FF2F00000F7800C1
:10339000020037000000EB00000F780011028000EF
:1033A000F0F12F0000806000100288000000000093
:1033B0001E0078000080FA00000006000800FA00F5
:1033C0001007980021079800320798009E0090008F
:1033D000010F78001E007800E00890001E007800C1
:1033E00070089000808F5000120031000001EB0047
:1033F000AE0090001E00780041FE07003E009000E5
:103400000000E0000B003A001E0078001008900059
:103410000000E000070032009E007800728040004B
:10342000870107000000E0000200320010002000C9
:10343000010037003E0090000080FA000000060006
:103440000A00FA0020079800310798004207980008
:10345000AE009000110798001E00900060089000D8
:103460000000E000310032001E009000B00090002B
:103470001E00900000109000808040001E00900010
:10348000310098001E009000B00090001E009000D7
:1034900010009000808F5000040039001E00900042
:1034A000900078001E009000310098001E009000EF
:1034B000600890008000E9001E00900061089800FC
:1034C0001E009000801090001E00900030009000C0
:1034D00001017800800078003E0090005BF4070056
:1034E0004E009000100078000000E0000C003A0050
:1034F0001E009000400090000000E0000800320034
:103500001E009000680040004D0107000000E00030
:10351000030032004E0090001100200001087800E6
:1035200010002000000F7800020037000000EB00C0
:10353000000F78001E0078000080FA0000000600EE
:103540000A00FA0020079800310798004207980007
:10355000C0012000C4020700100798001E00900060
:103560000000E0003C003200104180000000E0005C
:1035700003003A009E0090001141880016010700E8
:103580003E009000E10F50000200360010002000C5
:10359000300798001E0090008000EB005108980052
:1035A0001E009000BE009000310898001E009000A0
:1035B000CE009000410898001E009000AE009000E0
:1035C000010878001E0090000080E800510107000B
:1035D0001E0090006C0040004E0107001E0090008D
:1035E0009E009000410098001E0090009E009000F8
:1035F000110898003E009000E20010001E009000AC
:10360000610098001E009000B008900020418000EA
:10361000808F5000030036001E009000300890009C
:10362000204188001E0090000081E8001E009000EC
:10363000300890006A00B90080007800C0C82100FE
:10364000008040008200780039010700100020004F
:10365000000F7800020037000080EB00000F7800B8
:103660001E0078000080FA00000006000600FA0044
:103670001007980021079800314180001E0090003B
:10368000008F4000104180000080E80078010700B2
:10369000104180009E0078001100980030418000A9
:1036A0009E007800808F500005003100104180009E
:1036B0008080E800004180003B01070004003700E3
:1036C000104180008080E800F04080003601070053
:1036D0002E0090000000E000050032001041800044
:1036E0006C004000800078002E0090002E01070042
:1036F0000080FA00000006000200FA0025003700F2
:1037000011028000F0F12F00008060000050A00046
:10371000100288000000000000000000D0E58000DA
:1037200030009000000F78009E0078006C80400010
:103730004F01070011028000F0F12F0000806000AF
:1037400010028800000000001E80E8004801070009
:103750001E007800B008900020418000808F50004B
:10376000030036001E0078003008900020418800D9
:103770001E81E8001E007800300890006A00B90041
:1037800080007800C0C821000080400082007800DE
:10379000E7000700A0E580000000E000D8FF3A0045
:1037A0000080FA00000006000400FA00CBF60700D3
:1037B000414180000100500050418800490037001D
:1037C000304180000000E800304188005041800016
:1037D0000000E90050418800304180000000E00016
:1037E00039003A00F1408000010F7800004180006C
:1037F000F04088009E0078000141880033003700C7
:10380000F0408000300090003000900010079800D9
:103810001E0090009000900030418000808F50008A
:103820002F003E0011028000F0F12F0000806000A8
:103830000050A000100288000000000000000000FE
:103840001E0090000080E800090107001E009000A3
:10385000200890000000E000030032001E009000ED
:103860006C0040000201070011028000F0F12F00FF
:103870000080600010028800000000001E00900020
:10388000B008900020418000808F50000300360077
:103890001E00900030089000204188001E0090001B
:1038A0000081E8001E009000300890006A00B90016
:1038B00080007800C0C821000080400082007800AD
:1038C0009B0007000100370000000000F04080006E
:1038D000100078000000E000C9FF3A000100370046
:1038E00000000000504180000000E000B4FF3A00FA
:1038F00030418000404188000080FA00000006004E
:103900000200FA007CFF0700A7FF0700060037004F
:10391000204180000000E0002C00320020418000A7
:103920000000E90020418800204180006A00B900C1
:1039300080007800C0C8210000804000100078009E
:103940000000E000F2FF3200204180006A00B90070
:1039500080007800C0C82100008F40001E00780061
:1039600010009000900090001E0078001100980058
:103970001E007800900090001E0178006400410055
:10398000808F500005003A001E0078001000900063
:10399000900090001E007800110098001E00780032
:1039A000100090003000900010418800104180000D
:1039B0001001780010418000C00890001041800084
:1039C00002000100000000000100370000000000BC
:1039D0000080FA00000006000200FA000000EB0080
:1039E000000F7800070037001E0078006A00B90059
:1039F00080007800C0C82100008040002C00070033
:103A00001E0FE8001E007800E10F5000F6FF3600A0
:103A100000CA210026000700A0CA210024000700D8
:103A200040CB21002200070000CA2100F04088009E
:103A3000A0CA2100004188000080FA0000000600B2
:103A40000600FA00200798002E0090003000900039
:103A500030009000100798001E0090006C0040009D
:103A6000830007001E0090006C004000800078007A
:103A700040CB21002E0007001E009000B0089000EF
:103A80001041800030089000808F50000300390002
:103A900010002000000F7800020037000000EB004B
:103AA000000F78001E0078000080FA000000060079
:103AB0000200FA00000F78009E0078006480400049
:103AC000800078001E007800110098001E00780029
:103AD0008080EB00210098009E0078006480400008
:103AE000800078001E007800310098009E00780069
:103AF00064804000800078001E007800410098003B
:103B00001E0078008000EB00010878000080FA00B9
:103B1000000006000200FA00000F78001E00780086
:103B20008000EB00410098000080FA0000000600D1
:103B30000600FA0010079800210798001E00900068
:103B400090009000010F78002E0090009E007800F9
:103B5000110098001E007800A00090002E00900038
:103B6000210098001E00780020009000AE00900018
:103B7000110098001E007800AE009000210098000F
:103B80002E0090009E009000410098001E009000C2
:103B9000100078008000E8001E0090000108780006
:103BA0000080FA00000006000800FA0020079800D4
:103BB000310798003E0090009000780011079800AF
:103BC0001E009000E10F400004003A002E0090001B
:103BD000C0009000010F78000D0037002E0090000B
:103BE00064004000000F7800030037001E007800DA
:103BF00090009000010F78001E00780010009000E7
:103C0000900078001E009000808F5000F7FF360073
:103C10001E007800900090003E0090001100980077
:103C20003E00900010009000BE009000210098001F
:103C30003E0090009E007800210098001E00780051
:103C4000BE009000110098003E009000AE00900071
:103C5000410098002E009000100078008000E800DD
:103C60002E009000010878000080FA000000060095
:103C70000400FA00100798001E0090004000900019
:103C8000000F78001E009000100090009E00900031
:103C9000A1009000210098001E00900020009000DC
:103CA0009E00900091009000110098001E00780086
:103CB000900090001E009000808F500004003A0099
:103CC0001E009000A00090001E00780011009800D7
:103CD0001E0090008000EB00410098001E0078005C
:103CE000100078008000E9001E00780001087800CC
:103CF0001E007800100078000080FA000000060026
:103D00002A00FA00201798003117980042179800EF
:103D1000E4004700223428000F000900B2187800A0
:103D2000BE109000110798002E1090001E01900008
:103D3000020878002E1090000080E80020179800FC
:103D40002E1090008000EB00010878002E109000EB
:103D50000080E800201798002E1090008000EB00F3
:103D6000010878002E1090000080E80020179800CD
:103D7000CE1090002E109000010878002E109000B8
:103D80000080E800201798000000EB00000F78008A
:103D90000A0037001E0078000000400000004700C5
:103DA000A00090002E109000010878002E109000C6
:103DB0000080E800201798001E0FE8001E00780021
:103DC000EF0F5000F3FF3600210280002E1090000C
:103DD000010878002E1090000080E800201798005D
:103DE00034C0BF008080FB002E10900001087800D6
:103DF0002E1090000080E800201798002E109000F0
:103E00008000EB00010878002E1090000080E80090
:103E1000201798002E1090000080FA000000060085
:103E20000000FA00180007000040800090077800AA
:103E30004F007800804188003400F9004400F90008
:103E40003200F9003600F9004F0778004F06BE0037
:103E50004F05BE004F04BE004F03BE004F02BE0020
:103E60004F01BE004F00BE004200F90000000600F6
:103E7000100020000080FA00000006000000FA0098
:103E80000080FA00000006000400FA00301F200045
:103E900001002000008FBE000421EF000021EF0090
:103EA0001E0078001008880021058000F0FF28001F
:103EB0000080600000C0A000200588008460A90088
:103EC0009460A8000481A80004A1A90005E1A8004D
:103ED0000080FA00000006000000FA0011028000D5
:103EE000F0F12F00008060000050A0001002880058
:103EF0000000000000000000804180000000E80099
:103F0000804188000080FA00000006000000FA00EE
:103F1000804180000000E9008041880080418000ED
:103F20000000E00005003A0011028000F0F12F00CF
:103F30000080600010028800000000000080FA008D
:103F4000000006000000FA008002EB0014002000D0
:103F50008001EB0062092000C137280080FC2100AD
:103F6000EBF107008002EB00140020008001EB0061
:103F70006209200021382800E0FE2100E4F107005A
:103F800054F407000000EB000080FA000000060077
:103F90000400FA0010079800C022EF0090012000F2
:103FA000000F780006003700C222EF001300070060
:103FB000F00F200010168800100007001E0FE90007
:103FC0001E0078000000E000F7FF3A000000EB0060
:103FD000A5F207000080FA00000006000200FA00C7
:103FE000000F7800D222EF00D422A90003000700BE
:103FF000D422A80001000700FBFF37000200FA00EE
:10400000F0FF2000000F7800000000001E00780084
:1040100000F0A7000000EA000000EA004F00DE0008
:10402000004078001E0FE9000004E000F7FF3A00AE
:104030000080FA00000006000000FA00CC22EF0029
:10404000CE22A900EDFF0700CE22A800EBFF07005B
:10405000FBFF37000400FA00000F780011079800FA
:104060000080FA00000006000400FA001007980023
:104070000000EB00000F78001E009000610060005F
:10408000004078000004E000040032001E009000B0
:104090000000A1000080E8001007980034F4070039
:1040A000704180000000E00003003A0040832000DF
:1040B0000000A10070418800614180001E00900056
:1040C00080804000D03F2100808F50000D003E00D6
:1040D000614180001E0090008080400060418000AF
:1040E000808F5000070036007141800060418000E1
:1040F000008F4000614180001E0090000080400061
:104100006041880020F407001E0078000080FA005B
:10411000000006000200FA00000F78000080FA009C
:10412000000006000000FA002C28EF000080FA00D2
:10413000000006000000FA0060418000E13F21001D
:10414000008050000080FA00000006004200F800E5
:10415000801F78000002200010028800811F780074
:10416000829FBE00849FBE00869FBE00889FBE00C7
:104170008A9FBE008C9FBE008E1F78003600F8001C
:104180003200F8004400F8003400F800804180005C
:10419000801F7800004080000F0878008E0A02001F
:1041A0000000000000408000900778004F00780079
:1041B000804188003400F9004400F9003200F90021
:1041C0003600F9004F0778004F06BE004F05BE00CD
:1041D0004F04BE004F03BE004F02BE004F01BE00A1
:1041E0004F00BE004200F900000006008C1C0000D9
:1041F00032000000000000001E0800000E00000059
:1042000000000000321C00005A0000000000000006
:10421000000800001E000000000000003008000040
:104220000200000002000000EF0000003208000061
:1042300000140000000000002C0800000400000032
:08424000000000000000000076
:020000040002F8
:08AFF800BFF800007F7F00009C
:00000001FF
